:03000000020C08E7
:0C0C0800787FE4F6D8FD758141020C4FA6
:10191C00C2AF12174A12197112158775CF10D2AFB8
:03192C00020C9416
:100E76007528007527BA7526DB7525007D207C0050
:100E8600AF31227F087E007D007B017A0079A502C2
:100E960005F19000AFE4F0A32254EFF09000B2E029
:100EA60054FEF0224410F04408F04404F04402F0EA
:100EB60022E47528DC752705F526F525229000B273
:100EC600E04440F0229000B1E04401F0A3E0F022BB
:0B0ED600E49000B1F0A3E05440F022D3
:041351008E208F213A
:101355007E007F077D007B007A00792A1205F175F2
:101365002A55752B01E520F52CE521F52DE52024E1
:10137500562521F52E752F0D75300A7B007A0079DB
:0F1385002A752600752707E4FF1219C6E4FEFF3C
:011394002236
:100ADF009000ACE0FF04F074A52FF582E43400F52C
:100AEF0083E599F09000A5E064556002804F900077
:100AFF00ACE0C3940774809480406B9000A6E064D0
:100B0F0001600280389000AAE0640D7006A3E064D3
:100B1F000A600280289000A6E0FF9000A5E02FFF5A
:100B2F00E433FE9000A7E07C002FFFEC3EFEA3E035
:100B3F002FFFEC3EFEA3E06F7001EE600B120E89EB
:100B4F00E49000ADF0A3F0229000A7E0FEA3E0FD3B
:100B5F00EDFF9000ADEEF0A3EFF07D017C00AF3123
:070B6F001214FB120E892293
:08000300120B767F010208399F
:1013D8009000B3E020E035120E821211D39000B3D2
:1013E800E030E31654F7F0C285C2A59000B2E0548D
:1013F800BFF09000B1E054FEF0229000B3E0440842
:0D140800F0D285D2A5120ECBE04440F022B8
:101273009000B3E020E044120E821211D39000B329
:10128300E030E41254EFF0C2847D087C00AF3112E9
:101293000E03120EA2229000B3E04410F0D2849009
:1012A30000B2E04401F07528807527EE7526367587
:0C12B30025007D087C00AF31120FB52231
:100D1B009000B3E020E06C120E821211D39000B35E
:100D2B00E030E62854BFF01219F17D017C0012145B
:100D3B00151219F17D027C001214FB7D107C00AFA3
:100D4B0031120E039000B2E054FDF0229000B3E09C
:100D5B004440F01219F17D027C001214151219F1A6
:100D6B007D017C001214FB75284075277775261BB7
:100D7B007525007D107C00AF31120FB59000B2E0ED
:040D8B004402F0220C
:100D8F009000B3E020E06C120E821211D39000B3EA
:100D9F00E030E52854DFF01219EE7D087C001214C4
:100DAF00151219EE7D207C001214FB7D047C00AF20
:100DBF0031120E039000B2E054DFF0229000B3E046
:100DCF004420F01219EE7D207C001214151219EE3A
:100DDF007D087C001214FB7528007527DD75266DC4
:100DEF007525007D047C00AF31120FB59000B2E085
:040DFF004420F0227A
:0119F70022CD
:101634009000B3E020E021120E821211D39000B387
:10164400E030E50A1219EE7D407C001214FB1219F9
:09165400F47D047C001214FB2259
:10165D009000B3E020E021120E821211D39000B35E
:10166D00E030E50A1219EE7D407C001214FB1219D0
:09167D00F47D027C001214FB2232
:101686009000B3E020E021120E821211D39000B335
:10169600E030E50A1219EE7D407C001214FB1219A7
:0916A600F47D107C001214FB22FB
:1016AF009000B3E020E021120E821211D39000B30C
:1016BF00E030E50A1219EE7D407C001214FB12197E
:0916CF00F47D087C001214FB22DA
:101451009000B3E020E032120E821211D39000B35B
:10146100E030E50A1219EE7D407C001214FB7D800C
:101471007C00AF31120E03120EB77D80FCAF31122A
:0A1481000FB59000B3E04404F02220
:1017F1007D407C00AF31120E03120EB77D40FCAF6D
:0C18010031120FB59000B3E04402F02259
:100380009000ADE0FEA3E0FFEE6003020473EF24F3
:10039000FE603D24FE605124FC606524F8607924F1
:1003A000F0700302043024E0700302044824C0709B
:1003B00003020460247F60030204739000AFE070C6
:1003C00004A3E0640170030204D7120E9804F02223
:1003D0009000AFE07004A3E0640270030204D7123F
:1003E0000E987402F00216869000AFE07004A3E04D
:1003F000640470030204D7120E987404F00216AF5E
:100400009000AFE07004A3E0640870030204D71208
:100410000E987408F00216349000AFE07004A3E068
:10042000641070030204D7120E987410F002165D67
:100430009000AFE07004A3E0642070030204D712C0
:100440000E987420F00214519000AFE07004A3E005
:10045000644070030204D7120E987440F00217F142
:100460009000AFE07004A3E06480606B120E98749B
:0D04700080F0229000AFE07002A3E0605A1F
:10047D00E4F5209000AFF0A3F01219F47D017C009B
:10048D001214FB9000B3E030E10F54FDF07D407C81
:10049D0000AF31120E031213D89000B3E030E20F0B
:1004AD0054FBF07D807C00AF31120E03120D8F7B5B
:1004BD00007A0079207D08E4FF120EE1E520600A44
:0A04CD001219EE7D007C801214FB72
:0104D7002202
:10148B008F31439A01439A0243A120439A10439A06
:10149B00207BFF7A0A79DFE4FF1217257F0F120EEC
:1014AB008B9000B2E0120EAA7BFF7A00790312191F
:0A14BB0052120E76120FB57F0022C8
:1001D9008F1D8C1E8D1FE51F30E0161203809000C5
:1001E900B1E0FEA3E0FF121351AE1EE51F6401FF4B
:1001F90022E51F30E67C9000B3E054FDF030E04F7B
:10020900E054FEF030E70AE0547FF0120E76120F48
:10021900B59000B2E054BFF0120EAAA3E030E40793
:100229009000B2E04401F09000B3E030E60790009E
:10023900B2E04402F09000B3E030E303120EC39041
:1002490000B3E030E5249000B2E04420F0801B9038
:1002590000B3E04401F0120E821211D3120ED6A39C
:10026900E030E303120ECB120EC3AE1EE51F64404D
:10027900FF22E51F30E7369000B3E054FBF0121976
:10028900F47D107C001214FB1219F47D047C001219
:100299000E031219F4E4752864F527F526F5257D72
:1002A90004FC120FB5AE1EE51F6480FF22E51F3066
:1002B900E311C2849000B3E0120E9FAE1EE51F64E5
:1002C90008FF22E51F30E40B120351AE1EE51F643F
:1002D90010FF22E51F30E106AE1E6402FF22E51F72
:1002E90030E20E9000B312036AAE1EE51F6404FFEC
:1002F90022E51F30E5479000B3E04480F04401F067
:10030900E49000B1F0A3F0C2A5C2859000B1E05419
:10031900FEF09000B3E054F7F0C284120E9FA312CE
:10032900036A1219F47D017C001214FB12035112A5
:100339000EC3120ED6AE1EE51F6420FF22E51E3045
:10034900E70280FEE4FEFF229000B3E054BFF09084
:1003590000B2E054FDF01219F17D027C001214FB89
:1003690022E054DFF09000B2E054DFF01219EE7D84
:07037900207C001214FB229E
:0919D100E4F520FB7A00792022E4
:0519DA008F3F7F002299
:0B061D008F1D8C1E8D1FE51F30E010AC
:100628007520017D011206F9AE1EE51F6401FF2247
:05063800E51F30E21196
:10063D001219D17D03FF120EE1AE1EE51F6404FFFA
:01064D00228A
:05064E00E51F30E35040
:100653007D041207057521017B007A0079217D0352
:10066300E4120711E52064016026E4F521FB7A001A
:1006730079217D01FF120EE17B007A0079217D0251
:10068300E4FF120EE112071F7D01FCAF3F120FB50D
:100693007520017D05120705AE1EE51F6408FF22C4
:0506A300E51F30E52910
:1006A8001219D17D01FF120EE17D021206F912190D
:1006B800D17D0212071112071F7D04FCAF3F120FF4
:0906C800B5AE1EE51F6420FF22FF
:1006D100E51F30E60D7D06120734AE1EE51F6440AE
:1006E100FF22E51E30E70D7D07120734E51E548019
:1006F100FE7F0022E4FEFF227B007A007920E4FFE6
:10070100120EE1227B007A007920E4FF120EE12231
:10071100FF120EE17D047C00AF3F120E03227D012A
:100721007C00AF3F120E03E4752810752727F526CC
:0F073100F525227B007A007900E4FF120EE12209
:0319EE00AF3F22E6
:0519DF008F407F002293
:1014C5008F1D8C1E8D1FE51F30E0097D011214EB69
:1014D5006401FF22E51F30E1097D021214EB64026D
:1014E500FF22E4FEFF227B007A007900E4FF120F61
:0614F5004BAE1EE51F22B4
:0319F100AF4022E2
:0519E4008F417F01228C
:0B0A47008F1D8C1E8D1FE51F30E02D61
:100A5200E4F520F521AF217B007A007900E4FD1254
:100A6200152D0521E52170020520C39402E52064BD
:0D0A720080948040E0AE1EE51F6401FF226D
:100A7F00E51F30E1097D01120AC36402FF22E51F61
:100A8F0030E2097D02120AC36404FF22E51F30E33E
:100A9F000D7D01120AD3AE1EE51F6408FF22E51F6C
:100AAF0030E40D7D02120AD3AE1EE51F6410FF2243
:100ABF00E4FEFF227B007A007900E4FF12152DAED1
:100ACF001EE51F227B007A0079007F0112152D226F
:0319F400AF4122DE
:0D19AD0033F522C2AFE51D25E02408F82225
:0614FB00EFC3951C50290F
:10150100A2AFE433F521C2AFEF25E02408F8C00013
:10151100E6FE08E6FFEE4CFEEF4DD000A60608F60B
:09152100E52124FF92AF7F0022B6
:03152A007F03221A
:0A1415008C218D22EFC3951C502F8F
:10141F00A2AFE433F523C2AFEF25E02408F8C000F4
:10142F00E6FE08E6FFE522F4FDE521F45EFEEF5D42
:0F143F00D000A60608F6E52324FF92AF7F002217
:03144E007F0322F7
:100C9400E4F51D75CF101219E91219B2E6FE08E643
:100CA4004E7009051DE51DC3951C40EDE51DC3955A
:030CB4001C50DDF4
:100CB700E4F51EF51FF520F521A2AF1219ADE6F5F3
:100CC7001E08E6F51F1219B2E4F608F6E52224FF1E
:100CD70092AFE51D75F003A42410F808E6FA08E6BC
:100CE700F5828A83AD1FAC1EAF1D1205EF8E1E8FD6
:100CF7001FA2AFE41219ADC000E6FE08E6FFE51E2D
:100D07004EFEE51F4FD000A60608F6E52224FF9207
:010D1700AF2C
:030D1800020C9436
:0E1962000C10FF0A47FF061DFF14C5FF01D938
:10158700E4F51D751C04FE7F08FDFB7A007908123F
:1015970005F1AF1D051D1219E4AF1D051D1219DA5E
:0C15A700AF1D051D1219DFAF1D02148BD3
:1015B300F090000075F00BEB1205DFEA75F00BA459
:1015C3002583F5832290000075F00BE51F1205DFDC
:0C15D300E51E2275F00BEF1205DFEE2282
:0F1971007E007FA57D007B017A0079000205F1E1
:060FB5008C238D24A90726
:100FBB00E4FBFA1215B4E020E04B1215B4E0440147
:100FCB00F09000031215B71205AE00000000900060
:100FDB00011215B7E523F0A3E5241215B3E054FD78
:100FEB00F0E9540F25E025E0FF1215B4E054C34F90
:100FFB00F0AF28AE27AD26AC259000071215B7121F
:10100B0005A27F00220BBB00010AEB640F4A70A301
:02101B007F0153
:01101D0022B0
:0611D3008C218D22A9070A
:1011D900E4FFFE9000001215D61215BFE0FD30E0C5
:1011E9002E1313540FB501279000011215D61215AD
:1011F900BFE0FCA3E0B52217ECB521139000031260
:1012090015D61215BF1205AE000000007F00220F8F
:0C121900BF00010EEF640F4E70B97F01A2
:0112250022A6
:060E03008C228D23A907DB
:100E0900E4FBFA1215B4E0FF30E0541313540F69F0
:100E1900704D9000011215B7E0FEA3E06523700341
:100E2900EE6522703A1215B4E054FEF090000312F8
:100E390015B71205AE000000009000011215B7E4C5
:100E4900F0A31215B3E054FD1215B3E054C3F090AA
:100E590000071215B71205AE000000007F00220B33
:0C0E6900BB00010AEB640F4A70997F0186
:010E7500225A
:100B7600E4F51EF51F1215C81215BFE030E06C90A3
:100B860000031215CB1215BF12056D900007121542
:100B9600CB1215BFE0F8A3E0F9A3E0FAA3E0FBC38C
:100BA60012055C50461215C81215BFE0FBC3133080
:100BB600E0129000031215CB1215BF1205AE00000D
:100BC6000000800A1215C81215BFEB54FEF012156C
:100BD600C81215BFE01313540FFF9000011215CB76
:100BE6001215BFE0FCA3E0FD1214FB051FE51F7004
:100BF60002051EC3940FE51E648094805003020B09
:010C06007B72
:010C070022CA
:10170000EFFD7C00700B43A10243A101C2A0C2A166
:1017100022ED64014C700B43A11043A120C2A4C26E
:05172000A5227FFF225D
:10184300EFFD7C007005D2A0C2A122ED64014C70B3
:0918530005D2A4C2A5227FFF22E8
:10185C00EFFD7C007005C2A0D2A122ED64014C709A
:09186C0005C2A4D2A5227FFF22CF
:10187500EFFD7C007005C2A0C2A122ED64014C7091
:0918850005C2A4C2A5227FFF22C6
:1018F000EF7010439180C297439101C29043914091
:06190000C296227FFF22C7
:0F198000EF7009ED6003D29722C297227FFF22FA
:0F198F00EF7009ED6003D29022C290227FFF22F9
:0F199E00EF7009ED6003D29622C296227FFF22DE
:10194100EF700B439A04C282439A08C283227FFF3D
:011951002273
:1015DF00EF7025EDF5827583007009EB6003D28201
:1015EF0022C28222E582640145837009EB6003D237
:0B15FF008322C283227FFF227FFF2295
:1019060074CA251EF582E43400F583E022D3EF94F1
:061916000274809480229F
:10176D008F2612191340037F012274CA25261219E0
:10177D000A540FFF121843EFB526037F00227F0294
:01178D002239
:10178E008F2612191340037F012274CA25261219BF
:10179E000A540FFF12185CEFB526037F00227F025A
:0117AE002218
:1017AF008F2612191340037F012274CA252612199E
:1017BF000A540FFF121875EFB526037F00227F0220
:0117CF0022F7
:021395008F1DAA
:10139700E4F51E12191340037F0122E4F51EE51E32
:1013A700C3951D5020AF1E121700EF651E7016E57E
:1013B7001E540FFF12190654F04FF012190654CF9E
:1013C700F0051E80D9E51E651D60037F01227F00A1
:0113D70022F3
:10152D008F228B238A24892512191340037F0122D0
:10153D00ED14600C14600E2402700FAF220217AF71
:0D154D00AF2202176DAF2202178E7F012220
:10000E00E4F58E758911758A18758CFCC28CD2A98F
:05001E00D28C7F0122DD
:10195200EA494B7002FF228B398A3A893B7F012286
:03000B00021226B8
:10122600C0E0C0F0C083C082C0D075D000C000C08E
:1012360001C002C003C004C005C006C007758A19F4
:10124600758CFCE53A453B45396007AA3AA93B123D
:1012560005EBD007D006D005D004D003D002D001CC
:0D126600D000D0D0D082D083D0F0D0E032C4
:1013090074CC2527F582E43400F583E022D3EF94E9
:10131900017480948022AB23AA24A9251204D8F54C
:1013290026FDAF2222F074CC251FF5827400351EEC
:10133900F583E02274CC2527F582E43400F583EFA8
:081349004401F0E4FDAF27228E
:021078008F1DCA
:10107A0012131640037F0122E4F51EF51FAF1F125B
:10108A0018F0EF651F7002E51E702BE51F54072547
:10109A00E0FF12132F54F14F12132E540F12132E76
:1010AA0054FEF0051FE51F7002051EC39401E51EDC
:1010BA006480948040C7E51D651F7002E51E6003C9
:0510CA007F01227F0000
:0110CF0022FE
:10117F008F288D2912131640037F0122E529640160
:10118F0070171211C960037F02227D01AF28121957
:10119F008FEF652860217F0222E52970171211C990
:1011AF0060037F0222E4FDAF2812198FEF652860DC
:1011BF00067F02227F01227F0022FDAF28121980B5
:0411CF00EF6528227E
:101128008F288D2912131640037F0122E5296401B7
:10113800701E7D01AF28121980EF652860037F02B9
:10114800227D01AF2812198FEF652860277F0222C0
:10115800E529701DFDAF28121980EF652860037F0F
:101168000222E4FDAF2812198FEF652860067F027E
:07117800227F01227F00220B
:101829008F2712131640037F0122AF2712199EEF4B
:0A183900652760037F02227F002272
:10160A00EFD312131840037F0122ED540FC454F094
:10161A00FE74CC2F12130D540F4EF0ED700974CCDA
:0A162A002F12130D54FEF07F002272
:10188E00EFD312131840037F012274CC2F12130DC5
:09189E00C4540F12051E7F002244
:1012BF008F2712131640037F012274CC2527121398
:1012CF000DFFC4540F6401700E12133D12117FEF06
:1012DF00652760237F022274CC252712130DFFC4CC
:1012EF00540F6402700E12133D121128EF65276020
:0A12FF00067F02227F00227F0022FA
:1018C000EFD312131840037F012274CC2F12130D93
:0818D000540112051E7F0022E5
:1010D0008F2712131640037F0122121309FFC454F5
:1010E0000F64017019EF30E03C12130954FEF07DDB
:1010F00001AF2712117FEF6527602A7F02221213AA
:1011000009FFC4540F64027019EF30E0181213097C
:1011100054FEF07D01AF27121128EF652760067F8E
:0811200002227F00227F002261
:100EE1008F228B238A24892512131640037F012226
:100EF100ED14B407005050900F0675F003A4C5839C
:100F010025F0C58373020F1B020F21020F27020F69
:0A0F11002D020F38020F3E020F43BD
:060F1B0012131F02117FFA
:060F210012131F0211284B
:060F270012131F0218293D
:0B0F2D00AB23AA24A925AF2202188ED6
:060F380012131F02160A4D
:0D0F3E00AF220212BFAF220210D07F0122AD
:1007400074B62FF58274003EF583EDF074BF252555
:10075000F58274003524F58322E52525E0FFE524A4
:1007600033FE74B82FF58274003EF583E4F0A304E1
:10077000F074BA2FF58274003EF58322F0EF25E085
:1007800024B5F582E43400F583E022E52525E0FF79
:10079000E52433FE22E51F25E0FFE51E33FE74B598
:1007A0002FF58274003EF583E022EFFD7C00D394A8
:1007B00001748094802274BE251FF5827400351E5A
:1007C000F5832274B42FF58274003EF5832274BC45
:1007D0002FF58274003EF5832274B62FF5827400E3
:1007E0003EF5832274B72FF58274003EF58322FD17
:1007F000E51F25E0FFE51E33FE22EF25E024B4F5DA
:1008000082E43400F583E0540F22AB21AA22A9230D
:100810001204D8F524FDAF202274B82FF58274009D
:100820003EF58322E0FEA3E0D394E8EE940322E5B4
:090830001F25E0FFE51E33FE2246
:10155A001207AA40037F0122ED4C701E12077D5428
:10156A00074440F01207FA12077C54FD12077C4424
:0D157A000112077C4404F07F00227F012253
:1018A7001207AA40037F012212077D54FEF0ED4C78
:0918B7007004C282C2837F00228A
:1016D8008F25D3EF1207AF40037F0122E5251207BC
:1016E8007E4402F0E4FBFDAF251215DFE4FB7D012B
:0816F800AF251215DF7F00226F
:10192F00EF1207AE40037F012212077D54FDF07FB7
:02193F00002284
:1017D000EF1207AE40037F012212077D30E009C3FC
:1017E0001320E0047F0180027F00EF12051E7F00BE
:0117F00022D6
:1018D800EF1207AE40037F0122ED540FC454F0FE0F
:0818E8001207FA4EF07F002206
:10180D00EF1207AE40037F0122ED541F33333354E3
:0C181D00F8FE12077D54074EF07F0022F9
:0209A9008F1DA0
:1009AB00D3EF1207AF40037F0122E4F51EF51FAF13
:1009BB001F121941EF651F7002E51E706FF58375ED
:1009CB0082021207EF74B42FF974003EFA7B017E9A
:1009DB00007F021205F1E51F540F1207EF1207C338
:1009EB00E054F04DF01207CEE4F0A3F01207F01232
:1009FB000771E4F0A3F0120819E4F0A3F074BE251C
:100A0B001FF5827400351EF583E4F074BF251FF5C6
:100A1B00827400351EF583E4F0051FE51F70020597
:100A2B001EC39401E51E648094804083E51D651F01
:0B0A3B007002E51E60037F02227F00B6
:010A4600228D
:020026008F2326
:10002800D3EF1207AF40037F0122E4F524F525C37F
:10003800E52595237480F865249840030201D612BB
:10004800078B12079E13135401640170591207CECF
:10005800E0FEA3E0FFE4FCFD7B607AEAF9F8C31256
:100068000546504212078B1207CEE4F0A312077020
:10007800E4F0A3F01207C3E0FFC4540FFEEF540FDF
:10008800FFEE540FFE04540FC454F04FF0EED39417
:100098000274809480400F12074CE4F012078B1210
:1000A80007C3E0540FF0E52525E0FDE52433FC7493
:1000B800B42DF58274003CF583E0F9C4540F146044
:1000C80063147003020178240260030201C112075D
:1000D80059E0FEA3E0D394F4EE940150030201CB5F
:1000E80074BA2DF58274003CF583E4F0A312074B33
:1000F800E0FF04F0C3EF9402748094804005120777
:100108004CE4F012074CE070047D0180027D00127F
:10011800078B120740E0640170057D010201BA7D7A
:10012800000201BA12075912082450030201CB1227
:10013800074CE070047F0180027F0012074CEF1229
:10014800074BE060047D0180027D0012078B1207D7
:10015800D9EDF01207D9E070047D0180027D00120C
:10016800078B1207E4ED120770E4F0A3F00201CB4D
:10017800120759120824404B12078B120771E4F03A
:10018800A312074BE070047D0180027D0074BF2537
:1001980025F58274003524120748E060047D01804B
:1001A800027D00120740E060047D0180027D00129C
:1001B800078B1207E4EDF0800A12078B1207C3E9D8
:1001C800540FF00525E525700205240200377F004D
:0101D8002204
:10083900D3EF1207AF40037F0122E4F51EF51F1223
:10084900079520E0030208EAC31330E0030208EA2F
:100859001207B6E004F0120795131313541FFD1283
:1008690007B6E0C39D502B1207D9E0AF1F60057B87
:1008790001E48002E4FBFD1215DF12082F1207E4E0
:10088900E0AF1F60047B018002E4FB7D011215DFEC
:100899008023AF1FE4FBFD1215DFAF1FE4FB7D01D1
:1008A9001215DF1207B6E0D3940D748094804005C9
:1008B9001207B6E4F012082F120819E0FCA3E04C65
:1008C900600A120771E475F00112053012079513D9
:1008D9001354016401700A1207CEE475F001120580
:1008E90030051FE51F7002051EC39401E51E6480D3
:0908F900948050030208487F00BE
:0109020022D2
:100F4B008F208B218A228923D3EF1207AF40037F97
:100F5B000122ED14B40700504E900F7275F003A4EC
:100F6B00C58325F0C58373020F87020F8C020F9187
:100F7B00020F9C020FA1020FA6020FACAF200215AD
:100F8B005AAF200218A7AB21AA22A923AF20021720
:0B0F9B00D0AF200216D8AF2002192FA3
:060FA60012080A0218D82F
:060FAC0012080A02180DF4
:030FB2007F01229A
:0C19BA009000C7E0FBA3E0FAA3E0F922D4
:10101E008F1D8B1E8A1F8920EF704875985043874D
:10102E008053C8CF438E0253890F438920758DB2EA
:10103E00C28ED28ED2ACFE7F0AFD7B017A0079C0C1
:10104E001205F19000C7E51EF0A3E51FF0A3E52001
:10105E00F09000C5E521F0A3E522F0439108D2936C
:0A106E00AF1D22E51D64017FFF2283
:0B19C6008F228B238A2489257F0022BA
:10172500EFD39401748094805005EA494B70037F90
:101735000122EF75F003A4243CF8A60308A60208CD
:05174500A6017F002257
:03002300020903CC
:10090300C0E0C0F0C083C082C0D075D000C000C0BA
:1009130001C002C003C004C005C006C00730995718
:10092300C2999000C2E024FFFF9000C1E034FFFEB3
:100933009000C3E0B50629A3E0B507249000C0E406
:10094300F0A3E0FEA3E0FF7D001219BA1205F190B7
:1009530000C3E4F0A3F09000C1F0A3F0D293802B86
:100963001219BA9000C3E475F00112053085F082C4
:10097300F5831204F1F599309811C298E53D453E8F
:10098300453C6007AA3DA93E1205EBD007D006D02F
:1009930005D004D003D002D001D000D0D0D082D073
:0609A30083D0F0D0E03229
:10174A0012000E7F011209A97F021213957F01125E
:10175A0010787B007A007932752100752207E4FF40
:03176A0002101E4C
:0519E9007F0102002651
:100C140002191CE493A3F8E493A34003F68001F2C1
:100C240008DFF48029E493A3F85407240CC8C333E1
:100C3400C4540F4420C8834004F456800146F6DFB0
:100C4400E4800B0102040810204080901962E47EC5
:100C5400019360BCA3FF543F30E509541FFEE493A5
:100C6400A360010ECF54C025E060A840B8E493A36C
:100C7400FAE493A3F8E493A3C8C582C8CAC583CA97
:100C8400F0A3C8C582C8CAC583CADFE9DEE780BE4F
:011970000076
:1004D800BB010689828A83E0225002E722BBFE0222
:0904E800E32289828A83E4932255
:1004F100BB010CE58229F582E5833AF583E02250C0
:1005010006E92582F8E622BBFE06E92582F8E22209
:0D051100E58229F582E5833AF583E4932223
:10051E00BB010689828A83F0225002F722BBFE01BC
:02052E00F322B6
:10053000C5F0F8A3E028F0C5F0F8E5821582700256
:060540001583E038F022F3
:10054600EB9FF5F0EA9E42F0E99D42F0EC6480C82C
:0605560064809845F022CC
:10055C00EB9FF5F0EA9E42F0E99D42F0E89C45F0F5
:01056C00226C
:10056D007401FF3395E0FEFDFCA3A3A3E0CF2FF0B4
:10057D00E582158270021583E0CE3EF0E58215828C
:10058D0070021583E0CD3DF0E58215827002158372
:05059D00E0CC3CF0225F
:0C05A200ECF0A3EDF0A3EEF0A3EFF022CC
:1005AE00A8828583F0D083D0821205C51205C512AC
:1005BE0005C51205C5E473E493A3C583C5F0C583D1
:1005CE00C8C582C8F0A3C583C5F0C583C8C582C897
:0105DE0022FA
:0C05DF00A42582F582E5F03583F5832227
:0605EB008A838982E4739B
:1005F100EF4E6012EF60010EEDBB010B89828A8321
:10060100F0A3DFFCDEFA2289F05007F709DFFCA92D
:0C061100F022BBFEFCF309DFFCA9F02284
:00000001FF
